:100000000A128A11062AFF1B0D2883137F188317F3
:100010000008840A0319FF0A080000308A00040857
:10002000840A8207003420342034203420342034E1
:1000300020342034203420342034203443346F34AE
:10004000753472347334203464346534733420343A
:100050004C3469346F346E34733400344C34693446
:100060006F346E3420340034533441344D34003412
:10007000443449344D340034563445344E3400341D
:100080004C3455344E3400344D3441345234003401
:100090004D344534523400344A34453455340034F8
:10035E0000300A128A111D220A128A1101300A1265
:10036E008A111D220A128A11080001300A128A11FE
:10037E001D220A128A1108300A128A111D220A122F
:10038E008A1108007E088A007F0882000A128A11EC
:10039E00C9210A128A118000840A04087D060319F5
:1003AE000034FF0A0319FE0ACD292E3432343634B6
:1003BE003A342A3422342634303430343A34303419
:1003CE0030343A3430343034203441344D34003407
:1003DE00F4295330F200F20BF2290130F002003012
:1003EE00031CF103F102FF307106031D002AFF30DA
:1003FE007006031D032A042AF029052A0800C701E6
:10040E00C801C901CA01CB0183134730FD00013079
:10041E00FE00DC30FF00343084000A128A11CD2138
:10042E000A128A1183010A128A11372AF3008312E3
:10043E000313081073080A128A1158220A128A111D
:10044E008312031388140430F0000030F1000A12F6
:10045E008A11EF210A128A118312031388100800E1
:10046E008316031788018901C03083160313880091
:10047E008700850081130F309500831203138701C7
:10048E0085010A128A1157230A128A114E2A0A125C
:10049E008A11EB240A128A114E2A4E2A0A128A1146
:1004AE000028F00070185C2A602A831203130815C6
:1004BE00632A831203130811F018662A6A2A83121C
:1004CE00031388156D2A8312031388117019702A6D
:1004DE00742A831203130816772A83120313081241
:1004EE00F0197A2A7E2A831203138816812A831220
:1004FE00031388120800F4000830F1007108F500AB
:10050E00F601892A7408F10007300310F10CFF3E42
:10051E00031D8C2A7608F20072077104F30073082B
:10052E00F6000310F40D70087602031C9F2AA02A11
:10053E00A22A7008F6020130F502031DA72AA82A86
:10054E00892AA92A7608AB2A0800FA01FB01C92AD2
:10055E007A087807840079080318790A831203133E
:10056E00FF000A128A1103200A128A110A128A1136
:10057E0017230A128A110130FA070318FB0A0030FA
:10058E00FB07C92A7A087807840079080318790AC4
:10059E0083120313FF000A128A1103200A128A1112
:1005AE000038031DDB2ADC2AAF2ADD2A0800F900F9
:1005BE007908013A031DE42AE52AEB2A7408803EE5
:1005CE00F5007508FA00F92A7908023A031DF02A97
:1005DE00F12A162B7408C03EF5007508FA00F92AA8
:1005EE00162BF92A7A08F50004300310F50CFF3E9D
:1005FE00031DFC2A7508F6007608F7007A080F39F5
:10060E00F5007508F80077080A128A111D220A12E1
:10061E008A1178080A128A111D220A128A110800FC
:10062E00F70077080F39F3007308F5007708F30029
:10063E0004300310F30CFF3E031D202B7308F4004F
:10064E007408F60083120313081476080A128A112E
:10065E0058220A128A118312031388140530F000EF
:10066E000030F1000A128A11EF210A128A11831248
:10067E000313881075080A128A1158220A128A1159
:10068E008312031388140530F0000030F1000A12B3
:10069E008A11EF210A128A1183120313881008009F
:1006AE0000300A128A1158220A128A110730F500F8
:1006BE007D30F400F40B612BF50B612B03300A1225
:1006CE008A111D220A128A11F930F4006E2BF40BD6
:1006DE006D2B712B722B03300A128A111D220A12F6
:1006EE008A110430F5009130F400F40B7C2BF50BDD
:1006FE007C2B03300A128A111D220A128A11023033
:10070E000A128A111D220A128A1102300A128A1145
:10071E001D220A128A1108300A128A111D220A128B
:10072E008A1100300A128A111D220A128A110C3007
:10073E000A128A111D220A128A1100300A128A1117
:10074E001D220A128A1106300A128A111D220A125D
:10075E008A110800F400F501F60105307602031C3B
:10076E00B92BBA2BE22B012C012CE22B8312031393
:10077E008618C22BC32BED2B0130F3007308F5073F
:10078E00ED2BED2B831203130619CE2BCF2BED2B56
:10079E000130F3007308F507ED2BED2B83120313D5
:1007AE008619DA2BDB2BED2B0130F3007308F507DE
:1007BE00ED2BED2BED2B7408683A0319C92B023A79
:1007CE000319D52B073A0319BD2BED2B0A30F00078
:1007DE000030F1000A128A11EF210A128A1101303B
:1007EE00F3007308F60705307602031CFF2B002C6E
:1007FE00E22B012C03307502031C062C072C0B2C4C
:10080E0003140E2C0E2C0E2C03100E2C0E2C080086
:10081E0083120313A101FC1F152C162C1F2CFB0990
:10082E00FC09FB0A0319FC0AA1010314A10D1F2CDC
:10083E00FA1F222C232C292CF909FA09F90A03197B
:10084E00FA0A292C7A08790403192E2C2F2C652CE0
:10085E00A0010314A00D3F2C01300310F90DFA0D69
:10086E00FF3E031D342C0130FD007D08A0073F2CF8
:10087E00FA1F422C432C332C452C452C7A087C0233
:10088E00031D4B2C79087B02031C4E2C4F2C562C2F
:10089E007908FB027A08031CFC03FC02562C01307B
:1008AE000310FA0CF90CFF3E031D572C0130A00269
:1008BE00031D622C632C452C652C652C2108031D11
:1008CE00692C6F2CFB09FC09FB0A0319FC0A6F2C1F
:1008DE007C08FA01FA077B08F901F907762C080063
:1008EE00F601F11F7B2C7C2C852CF009F109F00A06
:1008FE000319F10AF6010314F60D852CF31F882C4B
:10090E00892C932CF209F309F20A0319F30A013028
:10091E00F4007408F606932CF701F80171087004C0
:10092E0003199A2C9B2CD92CF5010314F50DAB2C25
:10093E0001300310F00DF10DFF3E031DA02C013010
:10094E00F4007408F507AB2CF11FAE2CAF2C9F2CC6
:10095E00B12CB12C01300310F70DF80DFF3E031D25
:10096E00B22C71087302031DBE2C70087202031C98
:10097E00C12CC22CCA2C7008F2027108031CF3039E
:10098E00F3027714CA2C01300310F10CF00CFF3E69
:10099E00031DCB2C0130F502031DD62CD72CB12C08
:1009AE00D92CD92C7608031DDD2CE32CF709F80978
:1009BE00F70A0319F80AE32C7808F101F107770812
:1009CE00F001F007EA2C0800831203130618F02C2E
:1009DE00F12CF32D4B084906031DF62CF72C022D96
:1009EE0049084A06031DFC2CFD2C022D4A08031D46
:1009FE00012D142D022D4B080C3A031D072D082D29
:100A0E00272D49084A06031D0D2D0E2D272DCA0828
:100A1E00031D122D132D272D142D3F308700850019
:100A2E00D030F0000730F1000A128A11EF210A12BD
:100A3E008A11023083120313A9002908CA07272D31
:100A4E000A128A1155260A128A11063083120313CE
:100A5E004B02031C332D342D3D2D4B080C3A03193C
:100A6E00392D3A2D3D2DAE01AF01612D0C30F9001F
:100A7E000030FA004B08A900AA012908FB002A0839
:100A8E00FC000A128A110F240A128A1179088312A5
:100A9E000313AB00AB0A0130AC000030AD005A2D91
:100AAE000310AC0DAD0DAB0B572D2C08AE002D0861
:100ABE00AF00612D2E08850006304B02031C682DF9
:100ACE00692D7C2D4B08FA3EA900A90A0130AA0017
:100ADE000030AB00752D0310AA0DAB0DA90B722DB6
:100AEE002A08B0002B08B1007F2DB001B1017F2D77
:100AFE0030088700F4010314F40D01300A128A1134
:100B0E00DE220A128A11831203134808343E84002F
:100B1E0083130008F8008030F9000A128A11AC2203
:100B2E000A128A11053083120313A9002908F40052
:100B3E0001300A128A11DE220A128A113B30F800A5
:100B4E000030F9000A128A11AC220A128A11F4013D
:100B5E000314F40D02300A128A11DE220A128A11CF
:100B6E001C30F8008030F9000A128A11AC220A12E9
:100B7E008A110A30F0000030F100831203134B0883
:100B8E00A900AA012908F2002A08F3000A128A1104
:100B9E0077240A128A117008303E0A128A1117231E
:100BAE000A128A110A30F9000030FA008312031378
:100BBE004B08A900AA012908FB002A08FC000A120A
:100BCE008A110F240A128A117908303E0A128A11EC
:100BDE0017230A128A11542E8312031385018701DB
:100BEE000A128A11AF210A128A110530F000003064
:100BFE00F1000A128A11EF210A128A11F40103146C
:100C0E00F40D01300A128A11DE220A128A11013005
:100C1E00F8008030F9000A128A11AC220A128A11E9
:100C2E0083120313B201B3013308803AFF00803000
:100C3E007F02031D242E20303202031C272E282E65
:100C4E002A2E4E2E4E2E0A128A11BC210A128A11FB
:100C5E00E830F0000330F1000A128A11EF210A1277
:100C6E008A11013083120313B2070318B30A00303E
:100C7E00B3073308803AFF0080307F02031D492EF0
:100C8E0020303202031C4C2E4D2E2A2E4E2E0A12CE
:100C9E008A11AF210A128A11542E0800E830F00092
:100CAE000330F1000A128A11EF210A128A11013063
:100CBE0083120313A2002208CA073C30F000003052
:100CCE00F1004A08A200A3012208F2002308F30053
:100CDE000A128A1177240A128A11700883120313DA
:100CEE00A4002408C90786187D2E7E2E932E812EF1
:100CFE00812E812E6D300A128A11B1230A128A11A9
:100D0E0003188A2E8B2E812E8C2E01308312031304
:100D1E00A2002208C907932E3C30F0000030F100EB
:100D2E004908A200A3012208F2002308F3000A12C8
:100D3E008A1177240A128A11700883120313A400F1
:100D4E002408C7070619AC2EAD2EC22EB02EB02E1B
:100D5E00B02E68300A128A11B1230A128A110318B2
:100D6E00B92EBA2EB02EBB2E013083120313A20061
:100D7E002208C707C22E0730F9000030FA001830DB
:100D8E00F0000030F1004708A200A3012208F20093
:100D9E002308F3000A128A1177240A128A11831289
:100DAE00031348087007FB0071080318710AFC0052
:100DBE000A128A110F240A128A1179088312031358
:100DCE00A4002408C8008619ED2EEE2E032FF12E56
:100DDE00F12EF12E6A300A128A11B1230A128A11EB
:100DEE000318FA2EFB2EF12EFC2E01308312031364
:100DFE00A2002208C807032F1830A2002208F00014
:100E0E0047080A128A1182220A128A1183120313C8
:100E1E00A3002308C7003C30A2002208F0004908B6
:100E2E000A128A1182220A128A1183120313A30054
:100E3E002308C9003C30A2002208F0004A080A121A
:100E4E008A1182220A128A1183120313A300230825
:100E5E00CA004708A2002208CB000D304B02031C2B
:100E6E00392F3A2F572F0D30F9000030FA0001308C
:100E7E00A2002208CB074B08A300A4012308FB0005
:100E8E002408FC000A128A110F240A128A117A0809
:100E9E0083120313A601A6077908A501A5075E2FE5
:100EAE004B08A200A3012208A5002308A6002508CE
:100EBE00A2002208CB000A30F0000030F1004B08EF
:100ECE00A200A3012208F2002308F3000A128A11DD
:100EDE0077240A128A117008303E83120313A4007D
:100EEE002408BB000A30F9000030FA004B08A200BB
:100EFE00A3012208FB002308FC000A128A110F240A
:100F0E000A128A117908303E83120313A4002408B2
:100F1E00BC000A30F0000030F1004908A200A30125
:100F2E002208F2002308F3000A128A1177240A120B
:100F3E008A117008303E83120313A4002408BE00E9
:100F4E000A30F9000030FA004908A200A301220875
:100F5E00FB002308FC000A128A110F240A128A11C0
:100F6E007908303E83120313A4002408BF000A3010
:100F7E00F0000030F1004A08A200A3012208F2009E
:100F8E002308F3000A128A1177240A128A117008B4
:100F9E00303E83120313A4002408C1000A30F90066
:100FAE000030FA004A08A200A3012208FB00230821
:100FBE00FC000A128A110F240A128A117908303E97
:100FCE0083120313A4002408C2000C304702031C32
:100FDE00F12FF22FF72F5030A7000030A800FB2F73
:100FEE004130A7000030A8002708A2002208C40044
:020FFE000800E9
:02400E00F2EFCF
:00000001FF
