:100000000C945E000C9486000C9486000C94860080
:100010000C9486000C9486000C9486000C94860048
:100020000C9486000C9486000C9486000C94860038
:100030000C9486000C9486000C9486000C94860028
:100040000C9415030C9486000C94E3020C94BD02EE
:100050000C9486000C9486000C9486000C94860008
:100060000C9486000C948600000000080002010039
:100070000003040700000000000000000000000072
:10008000250028002B0000000000240027002A0083
:10009000040404040404040402020202020203032E
:1000A0000303030301020408102040800102040836
:1000B00010200102040810205F03130611241FBE44
:1000C000CFEFD8E0DEBFCDBF22E0A0E8B1E001C0B5
:1000D0001D92A133B207E1F711E0A0E0B1E0EEEC30
:1000E000F0E102C005900D92A038B107D9F710E0F9
:1000F000CDE5D0E004C02197FE010E945A06CC3520
:10010000D107C9F70E94D5030C945A080C9400003B
:1001100090E0FC01EC55FF4F249180579F4FFC016C
:100120008491882399F090E0880F991FFC01EA5789
:10013000FF4FA591B491FC01E458FF4F8591949134
:100140008FB7F894EC91E22BEC938FBF089508954C
:10015000AF92BF92CF92DF92EF92FF920F931F93D5
:10016000CF93DF936C017B018B01040F151FEB0113
:100170005E01AE18BF08C017D10759F06991D601CA
:10018000ED91FC910190F081E02DC6010995892B3C
:1001900079F7C501DF91CF911F910F91FF90EF90FB
:1001A000DF90CF90BF90AF900895FC01538D448DA8
:1001B000252F30E0842F90E0821B930B541710F012
:1001C000CF96089501970895FC01918D828D98171F
:1001D00061F0A28DAE0FBF2FB11D5D968C91928DF7
:1001E0009F5F9F73928F90E008958FEF9FEF089528
:1001F0002FB7F8948091860190918701A091880192
:10020000B09189012FBF8093920190939301A093A5
:100210009401B09395018AE891E00E94E40097FF71
:1002200026C02FB7F8948091860190918701A09104
:100230008801B09189012FBF4091920150919301A3
:100240006091940170919501841B950BA60BB70BDF
:1002500040918E0150918F016091900170919101B8
:1002600084179507A607B707B0F28FEF9FEF0895A1
:10027000FC01918D828D981731F0828DE80FF11D70
:10028000858D90E008958FEF9FEF0895FC01918D8B
:10029000228D892F90E0805C9F4F821B91098F7384
:1002A000992708958AE891E00E94460121E0892B70
:1002B00009F420E0822F089580E090E0892B29F056
:1002C0000E94520181110C9400000895FC01A48D3C
:1002D000A80FB92FB11DA35ABF4F2C91848D90E068
:1002E00001968F739927848FA689B7892C93A0894B
:1002F000B1898C91837080648C93938D848D9813D5
:1003000006C00288F389E02D80818F7D8083089567
:10031000EF92FF920F931F93CF93DF93EC0181E055
:10032000888F9B8D8C8D98131AC0E889F9898081FC
:1003300085FF15C09FB7F894EE89FF896083E8892F
:10034000F98980818370806480839FBF81E090E021
:10035000DF91CF911F910F91FF90EF900895F62EAE
:100360000B8D10E00F5F1F4F0F731127E02E8C8D48
:100370008E110CC00FB607FCFACFE889F98980818D
:1003800085FFF5CFCE010E946601F1CFEB8DEC0F1A
:10039000FD2FF11DE35AFF4FF0829FB7F8940B8FAA
:1003A000EA89FB8980818062CFCFCF93DF93EC0114
:1003B000888D8823B9F0AA89BB89E889F9898C914D
:1003C00085FD03C0808186FD0DC00FB607FCF7CF09
:1003D0008C9185FFF2CF808185FFEDCFCE010E9409
:1003E0006601E9CFDF91CF91089590E0FC01E859D3
:1003F000FF4F2491FC01EC55FF4F3491FC01E05775
:10040000FF4FE491EE23C9F0222339F0233001F1AC
:10041000A8F4213019F1223029F1F0E0EE0FFF1F8E
:10042000E458FF4FA591B4918FB7F894EC91611106
:1004300026C030953E233C938FBF08952730A9F006
:100440002830C9F0243049F7809180008F7D03C0A7
:10045000809180008F7780938000DFCF84B58F7785
:1004600084BDDBCF84B58F7DFBCF8091B0008F77CB
:100470008093B000D2CF8091B0008F7DF9CF3E2B1A
:10048000DACF3FB7F8948091810190918201A091D9
:100490008301B091840126B5A89B05C02F3F19F0B8
:1004A0000196A11DB11D3FBFBA2FA92F982F8827F4
:1004B000BC01CD01620F711D811D911D42E0660FCF
:1004C000771F881F991F4A95D1F7089561E084E04E
:1004D0000E94F50161E085E00E94F50161E086E09F
:1004E0000E94F50161E088E00C94F501FC01808137
:1004F0009181009711F00C94FC060895CF93DF933F
:10050000D82FC8E06D2F61708CE00E94F501D69560
:1005100061E08AE00E94F50160E08AE00E94F50156
:10052000C15081F7DF91CF9108950F931F93CF931F
:10053000DF93EC0188819981009759F02A813B81F2
:100540002617370730F081E0DF91CF911F910F918F
:1005500008958B016F5F7F4F0E948507009759F0C8
:10056000998388831B830A832C813D81232B59F730
:10057000FC011082E8CF80E0E7CF1F920F920FB608
:100580000F9211242F933F934F935F936F937F9319
:100590008F939F93AF93BF93EF93FF938AE891E07C
:1005A0000E946601FF91EF91BF91AF919F918F9152
:1005B0007F916F915F914F913F912F910F900FBE5F
:1005C0000F901F9018951F920F920FB60F92112443
:1005D0002F938F939F93EF93FF93E0919A01F09164
:1005E0009B018081E091A001F091A10182FD1BC0DF
:1005F00090818091A3018F5F8F732091A401821756
:1006000041F0E091A301F0E0E657FE4F958F809313
:10061000A301FF91EF919F918F912F910F900FBEAA
:100620000F901F9018958081F4CF1F920F920FB6F4
:100630000F9211242F933F938F939F93AF93BF9368
:100640008091860190918701A0918801B0918901E4
:100650003091800123E0230F2D3758F50196A11D1D
:10066000B11D209380018093860190938701A09310
:100670008801B09389018091810190918201A091BC
:100680008301B09184010196A11DB11D8093810168
:1006900090938201A0938301B0938401BF91AF91A5
:1006A0009F918F913F912F910F900FBE0F901F90B0
:1006B000189526E8230F0296A11DB11DD2CF1092E6
:1006C0008D0110928C0188EE93E0A0E0B0E0809361
:1006D0008E0190938F01A0939001B093910187E2D6
:1006E00091E090938B0180938A0185EC90E0909348
:1006F00097018093960184EC90E090939901809308
:10070000980180EC90E090939B0180939A0181EC9A
:1007100090E090939D0180939C0182EC90E09093F7
:100720009F0180939E0186EC90E09093A1018093BD
:10073000A0011092A3011092A4011092A5011092A1
:10074000A601109228021092270210922A021092FB
:10075000290210922C0210922B0270E060E087E2D6
:1007600092E00E9495022091270230912802811187
:1007700013C02115310519F0C9010E94FC06109221
:1007800028021092270210922C0210922B02109233
:100790002A0210922902089510922C0210922B0224
:1007A00069E771E0C9010C945308CF93DF93CDB78B
:1007B000DEB728970FB6F894DEBF0FBECDBF789492
:1007C00084B5826084BD84B5816084BD85B5826056
:1007D00085BD85B5816085BD80916E008160809307
:1007E0006E00109281008091810082608093810070
:1007F0008091810081608093810080918000816080
:10080000809380008091B10084608093B1008091DA
:10081000B00081608093B00080917A008460809302
:100820007A0080917A00826080937A0080917A00C9
:10083000816080937A0080917A00806880937A004A
:100840001092C1008BE00E9488008AE00E9488001C
:100850008CE00E94880084E00E94880085E00E946D
:10086000880086E00E94880088E00E948800E0916D
:100870009A01F0919B0182E08083E0919601F091D2
:1008800097011082E0919801F09199018FEC80839B
:100890001092A201E0919E01F0919F0186E0808379
:1008A000E0919C01F0919D01808180618083E091C5
:1008B0009C01F0919D01808188608083E0919C0182
:1008C000F0919D01808180688083E0919C01F0918E
:1008D0009D0180818F7D808341E450E065E371E07C
:1008E0008AE891E00E94A80042E050E067E771E0EA
:1008F0008AE891E00E94A80020E0822E20E0922E5B
:100900008AE891E00E944601181619060CF078C09A
:100910001A8219821C821B821E821D8270E060E096
:10092000CE0101960E94950229813A8181112BC046
:100930002115310519F0C9010E94FC061A8219829D
:100940001E821D821C821B820E94F80097FD23C01C
:100950008F8318860D811E810F5F1F4FB801CE0156
:1009600001960E949502882379F329813A818D812D
:100970009E81BE01695F7F4F820F931F0E945308C3
:100980001E830D83E1CF1E821D8269E771E0C901DC
:100990000E945308D9CF8091270290912802009796
:1009A00009F4B2C069817A816115710509F4AAC0A0
:1009B0004091290250912A022D813E81421753070E
:1009C00008F4A0C00E9453088D819E8190932C0250
:1009D00080932B021E821D82CE0101960E94760218
:1009E000C0902702D0902802C114D10449F0009190
:1009F0002B0210912C0276010115110509F09CC003
:100A00001A8219821C821B821E821D82009127027B
:100A10001091280201151105C9F0E0902B02F09009
:100A20002C02B701CE0101960E94950229813A81DC
:100A30008111BEC02115310519F0C9010E94FC06C3
:100A40001A8219821E821D821C821B82ED80FE800A
:100A5000F5E0EF16F10418F094E0E92EF12C86E0B1
:100A6000C82E81E0D82E10E000E0570121E0A21A44
:100A7000B1080E151F050CF0C4C00E946602C50126
:100A8000801B910B2D813E818217930728F4E98109
:100A9000FA81309709F093C010928501E5E8F1E002
:100AA0008081082E000C990B0E944208782E60E08D
:100AB0008BE00E94F5018FEB870D863008F082C035
:100AC000E72D770CFF0BE452FF4F80810E947E02DE
:100AD00061E08BE00E94F50160E0F60180810E94F8
:100AE000F5010E9441022B013C010E944102641960
:100AF000750986099709683E73408105910508F0DC
:100B00007AC0F3CF0E94FC0689819A8190932802D3
:100B1000809327028B819C8190932A0280932902E3
:100B20008D819E8190932C0280932B021A821982D0
:100B30001C821B824FCF750157012FEFA21AB20AF8
:100B4000F7018081082E000C990B0E941706892B53
:100B500091F7015011090C0D1D1DF8018081082E1F
:100B6000000C990B0E941706892B31F00E151F05FA
:100B700018F001501109F1CFA8014F5F5F4F4E19D6
:100B80005F0950932C0240932B02CE14DF0420F413
:100B9000B701C6010E944A08E0912702F09128029D
:100BA00080912B0290912C02E80FF91F108228CF20
:100BB000FE82ED82B801C9010E94530847CFE80FB9
:100BC000F91F6ECF80ED870D8A3030F4E72D770C5A
:100BD000FF0BED51FF4F79CFEAE7F1E090E080E0C5
:100BE0002191721204C0825F9E4FFC016ECF01966C
:100BF00085309105A9F70F5F1F4F22E0C20ED11C6F
:100C000038CF0E946602CE0101960E9476028114BE
:100C1000910409F475CE0E945201882309F470CE24
:100C20000E9400006DCE87E292E00C947602911152
:100C30000C942006803219F089508550C8F7089529
:100C40009927882708952F923F924F925F926F9233
:100C50007F928F929F92AF92BF92CF92DF92EF924C
:100C6000FF920F931F93CF93DF93CDB7DEB7CA1BCD
:100C7000DB0B0FB6F894DEBF0FBECDBF09942A88F8
:100C8000398848885F846E847D848C849B84AA84A0
:100C9000B984C884DF80EE80FD800C811B81AA812D
:100CA000B981CE0FD11D0FB6F894DEBF0FBECDBFF8
:100CB000ED010895EE0FFF1F0590F491E02D0994CA
:100CC0000F931F93CF93DF938230910510F482E04E
:100CD00090E0E0912F02F091300230E020E0B0E0AF
:100CE000A0E0309799F42115310509F44AC0281B7A
:100CF000390B24303105D8F58A819B816115710546
:100D000089F1FB0193838283FE0111C040815181EF
:100D10000281138148175907E0F04817590799F4E1
:100D2000109761F012960C93129713961C933296BB
:100D3000CF01DF91CF911F910F91089500932F0262
:100D400010933002F4CF2115310551F042175307AB
:100D500038F0A901DB019A01BD01DF01F801C1CF23
:100D6000EF01F9CF9093300280932F02CDCFFE0197
:100D7000E20FF31F81939193225031093983288325
:100D8000D7CF20912D0230912E02232B41F42091B8
:100D900002013091030130932E0220932D02209105
:100DA0000001309101012115310541F42DB73EB705
:100DB0004091040150910501241B350BE0912D0257
:100DC000F0912E02E217F307A0F42E1B3F0B281719
:100DD000390778F0AC014E5F5F4F2417350748F0B4
:100DE0004E0F5F1F50932E0240932D0281939193DB
:100DF0009FCFF0E0E0E09CCFCF93DF930097E9F046
:100E0000FC01329713821282A0912F02B09130021E
:100E1000ED0130E020E01097A1F420813181820FB4
:100E2000931F20912D0230912E022817390709F0C7
:100E300061C0F0932E02E0932D02DF91CF910895CF
:100E4000EA01CE17DF07E8F54A815B819E01411573
:100E50005105B1F7E901FB83EA8349915991C40F28
:100E6000D51FEC17FD0761F4808191810296840FF4
:100E7000951FE90199838883828193819B838A836B
:100E8000F0E0E0E012968D919C9113970097B9F5F0
:100E90002D913C911197CD010296820F931F2091C5
:100EA0002D0230912E022817390739F6309751F567
:100EB0001092300210922F02B0932E02A0932D02B6
:100EC000BCCFD383C28340815181840F951FC81743
:100ED000D90761F44E5F5F4F88819981480F591F90
:100EE000518340838A819B819383828321153105BD
:100EF00009F0B0CFF0933002E0932F029ECFFD01B6
:100F0000DC01C0CF13821282D7CFB0E0A0E0EBE8C3
:100F1000F7E00C9425068C01009751F4CB010E9458
:100F200060068C01C801CDB7DEB7E0E10C94410644
:100F3000FC01E60FF71F9C0122503109E217F3076D
:100F400008F49DC0D901CD91DC911197C617D70740
:100F500098F0C530D10530F3CE0104978617970776
:100F600008F3C61BD70B2297C193D1936D937C9343
:100F7000CF010E94FC06D6CF5B01AC1ABD0A4C0122
:100F80008C0E9D1EA0912F02B0913002512C412C4D
:100F9000F12CE12C109731F580912D0290912E02C9
:100FA0008815990509F05CC04616570608F058C028
:100FB0008091000190910101009741F48DB79EB797
:100FC0004091040150910501841B950BE817F90726
:100FD00008F055C0F0932E02E0932D02F9017183C1
:100FE0006083A0CF8D919C91119712966C9012976F
:100FF00013967C901397A815B90559F56C0142E03A
:10100000C40ED11CCA14DB0420F1AC014A195B09DF
:10101000DA011296159780F06282738251834083C1
:10102000D9016D937C93E114F10471F0D70113960B
:10103000FC93EE93129776CF22968C0F9D1FF901A9
:1010400091838083F301EFCFF0933002E0932F027E
:1010500069CF4816590608F42C017D01D3019ACFB7
:10106000CB010E9460067C01009749F0AE01B801F7
:101070000E944A08C8010E94FC06870153CF10E075
:1010800000E050CF9111089581568A5108F48052A2
:1010900085580895FB01DC0102C001900D9241507A
:1010A0005040D8F70895FB01DC0101900D9200201B
:1010B000E1F7089510E0CDE5D0E004C0FE010E9404
:0E10C0005A062196CE35D107C9F7F894FFCF16
:1010CE000000310280000400050006000800370E03
:1010DE007E673E7E306D79335B5F707F7B771F4E10
:1010EE003D4F47000000008801A800D500D50146FD
:1010FE0001E4003801456E746572206120666F75DB
:10110E0072206C657474657220776F7264206F72D2
:10111E002061206E756D62657220626574776565FB
:10112E006E203020616E64203939393920696E6342
:10113E006C7573697665000D0A00484C4F5055006A
:00000001FF
