:1000000014C01BC01AC019C018C017C016C015C034
:1000100014C013C012C011C010C00FC00EC00DC05C
:100020000CC00BC00AC009C008C011241FBECFE518
:10003000D2E0DEBFCDBF64D0D7C1E2CF282F22955A
:100040002F7030E04AEF5FEFB901649F9001659F28
:10005000300D749F300D1124280F311DC9010895F2
:10006000EF92FF920F931F93CF93DF93EC018B01DD
:100070007A0182E088D1888381E085D1F80180838C
:1000800080E081D1F7018083888186FF02C08F7173
:1000900001C08F738883DF91CF911F910F91FF90E3
:1000A000EF900895DF93CF9300D00F92CDB7DEB7D6
:1000B000CE010196BE016E5F7F4FAE014D5F5F4F77
:1000C000CFDF8B818BBB8A8188BB898182BB0F90FC
:1000D0000F900F90CF91DF9108958AB38FEF8ABB75
:1000E00097B387BB91B381BB84B38C6384BB12BAD3
:1000F00082B385BB85B388BB88B38BBBD3DF089540
:100100004F925F926F927F928F929F92AF92BF9227
:10011000CF92DF92EF92FF920F931F93CF93DF93D3
:10012000DCDF8BB3282F22952F7030E04AEF5FEF92
:10013000249FE001259FD00D349FD00D1124C80FBE
:10014000D11DEE24FF2401E010E0F8ECCF2ED12CDD
:10015000ECE34E2E74E3572E6CE2662E54E2752EBD
:100160004CE1842E34E1932E2CE0A22E94E0B92EA3
:100170003EC00930110514F4B5BA29C0C801099769
:10018000089710F4A5BA23C0C8014197089710F446
:1001900095BA1DC0C8014997089710F485BA17C0D1
:1001A000C8018197089710F475BA11C0C8018997E2
:1001B000089710F465BA0BC0C801C197089710F4EE
:1001C00055BA05C0C801C997059708F445BA0C1778
:1001D0001D0751F480E197E2F6013197F1F701979D
:1001E000D9F781E0E82EF12CAA980F5F1F4FE11498
:1001F000F10421F4C017D1070CF0BBCFCC33D105EB
:1002000019F4C1E0D0E004C02196C930D10514F43E
:10021000B5BA29C0CE010997089710F4A5BA23C032
:10022000CE014197089710F495BA1DC0CE014997A9
:10023000089710F485BA17C0CE018197089710F47B
:1002400075BA11C0CE018997089710F465BA0BC032
:10025000CE01C197089710F455BA05C0CE01C997D1
:10026000049708F445BA1EDF80E197E2F601319762
:10027000F1F70197D9F7AA98BACF11B880E280B9FF
:100280000895982F84EA86BF06B607FEFDCF93B97E
:1002900084E886BF06B607FEFDCF81B190E0887F77
:1002A000883109F491E0892F08951F93182F05C014
:1002B000812FE7DF882321F41F5F1F3FC9F710E07C
:1002C000812F1F91089584EA86BF06B607FEFDCFF1
:1002D00081B190E0887F883009F491E0892F0895FA
:1002E00083B984E886BF06B607FEFDCF81B190E0F2
:1002F000887F883109F491E0892F089584E986BFC9
:1003000006B604FCFDCF089583B984E886BF06B61F
:1003100007FEFDCF81B190E0887F883209F091E03F
:10032000892F089584EC86BF06B607FEFDCF83B102
:10033000089584E886BF06B607FEFDCF83B1089511
:10034000982F84EA86BF06B607FEFDCF81B180ED07
:1003500083B984E886BF06B607FEFDCF81B193B9A5
:1003600084E886BF06B607FEFDCF81B163B984E895
:1003700086BF06B607FEFDCF81B184E986BF06B60B
:1003800004FCFDCF0895982F84EA86BF06B607FEC9
:10039000FDCF81B180ED83B984E886BF06B607FE44
:1003A000FDCF81B193B984E886BF06B607FEFDCFC5
:1003B00081B184EA86BF06B607FEFDCF81B181ED2B
:1003C00083B984E886BF06B607FEFDCF81B184E815
:1003D00086BF06B607FEFDCF93B184E986BF06B699
:0C03E00004FCFDCF892F0895F894FFCF96
:00000001FF
